{
  "_format": "hh-sol-artifact-1",
  "contractName": "Upload",
  "sourceName": "contracts/Upload.sol",
  "abi": [
    {
      "inputs": [
        {
          "internalType": "address",
          "name": "_user",
          "type": "address"
        },
        {
          "internalType": "string",
          "name": "url",
          "type": "string"
        }
      ],
      "name": "add",
      "outputs": [],
      "stateMutability": "nonpayable",
      "type": "function"
    },
    {
      "inputs": [
        {
          "internalType": "address",
          "name": "user",
          "type": "address"
        }
      ],
      "name": "allow",
      "outputs": [],
      "stateMutability": "nonpayable",
      "type": "function"
    },
    {
      "inputs": [
        {
          "internalType": "address",
          "name": "user",
          "type": "address"
        }
      ],
      "name": "disallow",
      "outputs": [],
      "stateMutability": "nonpayable",
      "type": "function"
    },
    {
      "inputs": [
        {
          "internalType": "address",
          "name": "_user",
          "type": "address"
        }
      ],
      "name": "display",
      "outputs": [
        {
          "internalType": "string[]",
          "name": "",
          "type": "string[]"
        }
      ],
      "stateMutability": "view",
      "type": "function"
    },
    {
      "inputs": [],
      "name": "shareAccess",
      "outputs": [
        {
          "components": [
            {
              "internalType": "address",
              "name": "user",
              "type": "address"
            },
            {
              "internalType": "bool",
              "name": "access",
              "type": "bool"
            }
          ],
          "internalType": "struct Upload.Access[]",
          "name": "",
          "type": "tuple[]"
        }
      ],
      "stateMutability": "view",
      "type": "function"
    }
  ],
  "bytecode": "0x608060405234801561001057600080fd5b5061128d806100206000396000f3fe608060405234801561001057600080fd5b50600436106100575760003560e01c806336d6da551461005c578063a9ed9cb814610078578063bc8bef8114610094578063eb39113f146100b2578063ff9913e8146100e2575b600080fd5b61007660048036038101906100719190610bb3565b6100fe565b005b610092600480360381019061008d9190610c0f565b610173565b005b61009c610395565b6040516100a99190610d44565b60405180910390f35b6100cc60048036038101906100c79190610c0f565b61049e565b6040516100d99190610ea7565b60405180910390f35b6100fc60048036038101906100f79190610c0f565b6105b5565b005b6000808373ffffffffffffffffffffffffffffffffffffffff1673ffffffffffffffffffffffffffffffffffffffff1681526020019081526020016000208190806001815401808255809150506001900390600052602060002001600090919091909150908161016e91906110df565b505050565b6000600160003373ffffffffffffffffffffffffffffffffffffffff1673ffffffffffffffffffffffffffffffffffffffff16815260200190815260200160002060008373ffffffffffffffffffffffffffffffffffffffff1673ffffffffffffffffffffffffffffffffffffffff16815260200190815260200160002060006101000a81548160ff02191690831515021790555060005b600260003373ffffffffffffffffffffffffffffffffffffffff1673ffffffffffffffffffffffffffffffffffffffff16815260200190815260200160002080549050811015610391578173ffffffffffffffffffffffffffffffffffffffff16600260003373ffffffffffffffffffffffffffffffffffffffff1673ffffffffffffffffffffffffffffffffffffffff16815260200190815260200160002082815481106102bd576102bc6111b1565b5b9060005260206000200160000160009054906101000a900473ffffffffffffffffffffffffffffffffffffffff1673ffffffffffffffffffffffffffffffffffffffff160361037e576000600260003373ffffffffffffffffffffffffffffffffffffffff1673ffffffffffffffffffffffffffffffffffffffff1681526020019081526020016000208281548110610359576103586111b1565b5b9060005260206000200160000160146101000a81548160ff0219169083151502179055505b80806103899061120f565b91505061020b565b5050565b6060600260003373ffffffffffffffffffffffffffffffffffffffff1673ffffffffffffffffffffffffffffffffffffffff168152602001908152602001600020805480602002602001604051908101604052809291908181526020016000905b82821015610495578382906000526020600020016040518060400160405290816000820160009054906101000a900473ffffffffffffffffffffffffffffffffffffffff1673ffffffffffffffffffffffffffffffffffffffff1673ffffffffffffffffffffffffffffffffffffffff1681526020016000820160149054906101000a900460ff161515151581525050815260200190600101906103f6565b50505050905090565b60606000808373ffffffffffffffffffffffffffffffffffffffff1673ffffffffffffffffffffffffffffffffffffffff168152602001908152602001600020805480602002602001604051908101604052809291908181526020016000905b828210156105aa57838290600052602060002001805461051d90610ef8565b80601f016020809104026020016040519081016040528092919081815260200182805461054990610ef8565b80156105965780601f1061056b57610100808354040283529160200191610596565b820191906000526020600020905b81548152906001019060200180831161057957829003601f168201915b5050505050815260200190600101906104fe565b505050509050919050565b60018060003373ffffffffffffffffffffffffffffffffffffffff1673ffffffffffffffffffffffffffffffffffffffff16815260200190815260200160002060008373ffffffffffffffffffffffffffffffffffffffff1673ffffffffffffffffffffffffffffffffffffffff16815260200190815260200160002060006101000a81548160ff021916908315150217905550600360003373ffffffffffffffffffffffffffffffffffffffff1673ffffffffffffffffffffffffffffffffffffffff16815260200190815260200160002060008273ffffffffffffffffffffffffffffffffffffffff1673ffffffffffffffffffffffffffffffffffffffff16815260200190815260200160002060009054906101000a900460ff16156108675760005b600260003373ffffffffffffffffffffffffffffffffffffffff1673ffffffffffffffffffffffffffffffffffffffff16815260200190815260200160002080549050811015610861578173ffffffffffffffffffffffffffffffffffffffff16600260003373ffffffffffffffffffffffffffffffffffffffff1673ffffffffffffffffffffffffffffffffffffffff168152602001908152602001600020828154811061078d5761078c6111b1565b5b9060005260206000200160000160009054906101000a900473ffffffffffffffffffffffffffffffffffffffff1673ffffffffffffffffffffffffffffffffffffffff160361084e576001600260003373ffffffffffffffffffffffffffffffffffffffff1673ffffffffffffffffffffffffffffffffffffffff1681526020019081526020016000208281548110610829576108286111b1565b5b9060005260206000200160000160146101000a81548160ff0219169083151502179055505b80806108599061120f565b9150506106db565b506109f8565b600260003373ffffffffffffffffffffffffffffffffffffffff1673ffffffffffffffffffffffffffffffffffffffff16815260200190815260200160002060405180604001604052808373ffffffffffffffffffffffffffffffffffffffff168152602001600115158152509080600181540180825580915050600190039060005260206000200160009091909190915060008201518160000160006101000a81548173ffffffffffffffffffffffffffffffffffffffff021916908373ffffffffffffffffffffffffffffffffffffffff16021790555060208201518160000160146101000a81548160ff02191690831515021790555050506001600360003373ffffffffffffffffffffffffffffffffffffffff1673ffffffffffffffffffffffffffffffffffffffff16815260200190815260200160002060008373ffffffffffffffffffffffffffffffffffffffff1673ffffffffffffffffffffffffffffffffffffffff16815260200190815260200160002060006101000a81548160ff0219169083151502179055505b50565b6000604051905090565b600080fd5b600080fd5b600073ffffffffffffffffffffffffffffffffffffffff82169050919050565b6000610a3a82610a0f565b9050919050565b610a4a81610a2f565b8114610a5557600080fd5b50565b600081359050610a6781610a41565b92915050565b600080fd5b600080fd5b6000601f19601f8301169050919050565b7f4e487b7100000000000000000000000000000000000000000000000000000000600052604160045260246000fd5b610ac082610a77565b810181811067ffffffffffffffff82111715610adf57610ade610a88565b5b80604052505050565b6000610af26109fb565b9050610afe8282610ab7565b919050565b600067ffffffffffffffff821115610b1e57610b1d610a88565b5b610b2782610a77565b9050602081019050919050565b82818337600083830152505050565b6000610b56610b5184610b03565b610ae8565b905082815260208101848484011115610b7257610b71610a72565b5b610b7d848285610b34565b509392505050565b600082601f830112610b9a57610b99610a6d565b5b8135610baa848260208601610b43565b91505092915050565b60008060408385031215610bca57610bc9610a05565b5b6000610bd885828601610a58565b925050602083013567ffffffffffffffff811115610bf957610bf8610a0a565b5b610c0585828601610b85565b9150509250929050565b600060208284031215610c2557610c24610a05565b5b6000610c3384828501610a58565b91505092915050565b600081519050919050565b600082825260208201905092915050565b6000819050602082019050919050565b610c7181610a2f565b82525050565b60008115159050919050565b610c8c81610c77565b82525050565b604082016000820151610ca86000850182610c68565b506020820151610cbb6020850182610c83565b50505050565b6000610ccd8383610c92565b60408301905092915050565b6000602082019050919050565b6000610cf182610c3c565b610cfb8185610c47565b9350610d0683610c58565b8060005b83811015610d37578151610d1e8882610cc1565b9750610d2983610cd9565b925050600181019050610d0a565b5085935050505092915050565b60006020820190508181036000830152610d5e8184610ce6565b905092915050565b600081519050919050565b600082825260208201905092915050565b6000819050602082019050919050565b600081519050919050565b600082825260208201905092915050565b60005b83811015610dcc578082015181840152602081019050610db1565b60008484015250505050565b6000610de382610d92565b610ded8185610d9d565b9350610dfd818560208601610dae565b610e0681610a77565b840191505092915050565b6000610e1d8383610dd8565b905092915050565b6000602082019050919050565b6000610e3d82610d66565b610e478185610d71565b935083602082028501610e5985610d82565b8060005b85811015610e955784840389528151610e768582610e11565b9450610e8183610e25565b925060208a01995050600181019050610e5d565b50829750879550505050505092915050565b60006020820190508181036000830152610ec18184610e32565b905092915050565b7f4e487b7100000000000000000000000000000000000000000000000000000000600052602260045260246000fd5b60006002820490506001821680610f1057607f821691505b602082108103610f2357610f22610ec9565b5b50919050565b60008190508160005260206000209050919050565b60006020601f8301049050919050565b600082821b905092915050565b600060088302610f8b7fffffffffffffffffffffffffffffffffffffffffffffffffffffffffffffffff82610f4e565b610f958683610f4e565b95508019841693508086168417925050509392505050565b6000819050919050565b6000819050919050565b6000610fdc610fd7610fd284610fad565b610fb7565b610fad565b9050919050565b6000819050919050565b610ff683610fc1565b61100a61100282610fe3565b848454610f5b565b825550505050565b600090565b61101f611012565b61102a818484610fed565b505050565b5b8181101561104e57611043600082611017565b600181019050611030565b5050565b601f8211156110935761106481610f29565b61106d84610f3e565b8101602085101561107c578190505b61109061108885610f3e565b83018261102f565b50505b505050565b600082821c905092915050565b60006110b660001984600802611098565b1980831691505092915050565b60006110cf83836110a5565b9150826002028217905092915050565b6110e882610d92565b67ffffffffffffffff81111561110157611100610a88565b5b61110b8254610ef8565b611116828285611052565b600060209050601f8311600181146111495760008415611137578287015190505b61114185826110c3565b8655506111a9565b601f19841661115786610f29565b60005b8281101561117f5784890151825560018201915060208501945060208101905061115a565b8683101561119c5784890151611198601f8916826110a5565b8355505b6001600288020188555050505b505050505050565b7f4e487b7100000000000000000000000000000000000000000000000000000000600052603260045260246000fd5b7f4e487b7100000000000000000000000000000000000000000000000000000000600052601160045260246000fd5b600061121a82610fad565b91507fffffffffffffffffffffffffffffffffffffffffffffffffffffffffffffffff820361124c5761124b6111e0565b5b60018201905091905056fea26469706673582212207571d2710f049f6b74424ab18ebb4249a8d20fbc88b4d3a69615ae2999dec63f64736f6c63430008120033",
  "linkReferences": {},
  "deployedLinkReferences": {}
}